:020000040800F2
:10000000000002200D3A00085109000853090008B9
:1000100055090008570900085909000800000000A8
:100020000000000000000000000000005B09000864
:100030005D090008000000005F0900086109000870
:100040005D3A00085D3A00085D3A00085D3A000834
:100050005D3A00085D3A00085D3A00085D3A000824
:100060005D3A00085D3A00085D3A00085D3A000814
:100070005D3A00085D3A00085D3A00085D3A000804
:100080005D3A00085D3A00085D3A00085D3A0008F4
:100090005D3A00085D3A00085D3A00085D3A0008E4
:1000A0005D3A00085D3A00085D3A00085D3A0008D4
:1000B0005D3A00085D3A00085D3A00085D3A0008C4
:1000C0005D3A00085D3A00085D3A00085D3A0008B4
:1000D0005D3A00085D3A00085D3A00085D3A0008A4
:1000E0005D3A00085D3A0008000000005D3A000833
:1000F0005D3A00085D3A00085D3A00085D3A000884
:100100005D3A00085D3A00085D3A00085D3A000873
:100110005D3A00085D3A00085D3A00085D3A000863
:100120005D3A00085D3A00085D3A00085D3A000853
:100130005D3A00085D3A00085D3A00085D3A000843
:1001400000000000000000000000000000000000AF
:100150005D3A00085D3A00085D3A00085D3A000823
:100160005D3A00085D3A00085D3A00085D3A000813
:100170005D3A00085D3A00085D3A000800000000A2
:100180005D3A00085D3A00085D3A00085D3A0008F3
:100190005D3A00085D3A00085D3A00085D3A0008E3
:1001A0005D3A00085D3A00085D3A00080000000072
:1001B0005D3A00085D3A00085D3A00085D3A0008C3
:1001C0005D3A00085D3A00080000000000000000F1
:1001D00000000000000000005D3A00080000000080
:1001E000000000000000000000000000000000000F
:1001F00000000000000000005D3A00085D3A0008C1
:100200005D3A00085D3A0008000000005D3A000811
:100210005D3A00085D3A00085D3A00085D3A000862
:100220005D3A0008000000005D3A00080000000090
:100230005D3A00085D3A0008000000005D3A0008E1
:100240005D3A00085D3A00085D3A00085D3A000832
:100250005D3A00085D3A00085D3A00085D3A000822
:100260005D3A00085D3A00085D3A00085D3A000812
:100270005D3A00085D3A00085D3A000800000000A1
:100280005D3A00085D3A00085D3A00085D3A0008F2
:10029000000000005D3A00085D3A00080000000020
:1002A000000000005D3A00085D3A00085D3A000871
:1002B0005D3A00085D3A00085D3A00085D3A0008C2
:0C02C0005D3A00085D3A00085D3A000855
:1002CC0010B5054C237833B9044B13B10448AFF384
:1002DC0000800123237010BDD0000020000000001E
:1002EC00B83A000808B5034B1BB103490348AFF3F8
:1002FC00008008BD00000000D4000020B83A0008BF
:10030C0053B94AB9002908BF00281CBF4FF0FF3170
:10031C004FF0FF3000F074B9ADF1080C6DE904CE6C
:10032C0000F006F8DDF804E0DDE9022304B07047C4
:10033C002DE9F047089D04468E46002B4DD18A428C
:10034C00944669D9B2FA82F252B101FA02F3C2F1BF
:10035C00200120FA01F10CFA02FC41EA030E944050
:10036C004FEA1C48210CBEFBF8F61FFA8CF708FB71
:10037C0016E341EA034306FB07F199420AD91CEB49
:10038C00030306F1FF3080F01F81994240F21C817B
:10039C00023E63445B1AA4B2B3FBF8F008FB1033C3
:1003AC0044EA034400FB07F7A7420AD91CEB0404F8
:1003BC0000F1FF3380F00A81A74240F207816444C8
:1003CC00023840EA0640E41B00261DB1D44000234D
:1003DC00C5E900433146BDE8F0878B4209D9002DB1
:1003EC0000F0EF800026C5E9000130463146BDE83B
:1003FC00F087B3FA83F6002E4AD18B4202D38242A5
:10040C0000F2F980841A61EB030301209E46002D53
:10041C00E0D0C5E9004EDDE702B9FFDEB2FA82F2A8
:10042C00002A40F09280A1EB0C014FEA1C471FFA06
:10043C008CFE0126200CB1FBF7F307FB131140EAED
:10044C0001410EFB03F0884208D91CEB010103F1BA
:10045C00FF3802D2884200F2CB804346091AA4B27C
:10046C00B1FBF7F007FB101144EA01440EFB00FE50
:10047C00A64508D91CEB040400F1FF3102D2A645B5
:10048C0000F2BB800846A4EB0E0440EA03409CE754
:10049C00C6F12007B34022FA07FC4CEA030C20FA01
:1004AC0007F401FA06F31C43F9404FEA1C4900FA21
:1004BC0006F3B1FBF9F8200C1FFA8CFE09FB18119E
:1004CC0040EA014108FB0EF0884202FA06F20BD911
:1004DC001CEB010108F1FF3A80F08880884240F261
:1004EC008580A8F102086144091AA4B2B1FBF9F0A5
:1004FC0009FB101144EA014100FB0EFE8E4508D9A0
:10050C001CEB010100F1FF346CD28E456AD9023824
:10051C00614440EA0840A0FB0294A1EB0E01A14209
:10052C00C846A64656D353D05DB1B3EB080261EB77
:10053C000E0101FA07F722FA06F3F1401F43C5E951
:10054C00007100263146BDE8F087C2F12003D84087
:10055C000CFA02FC21FA03F3914001434FEA1C47C9
:10056C001FFA8CFEB3FBF7F007FB10360B0C43EABB
:10057C00064300FB0EF69E4204FA02F408D91CEB6B
:10058C00030300F1FF382FD29E422DD90238634469
:10059C009B1B89B2B3FBF7F607FB163341EA034109
:1005AC0006FB0EF38B4208D91CEB010106F1FF3858
:1005BC0016D28B4214D9023E6144C91A46EA00464F
:1005CC0038E72E46284605E70646E3E61846F8E6E1
:1005DC004B45A9D2B9EB020864EB0C0E0138A3E72A
:1005EC004646EAE7204694E74046D1E7D0467BE70B
:1005FC00023B614432E7304609E76444023842E783
:10060C00704700BF2DE9F0418CB00024079408948A
:10061C0009940A940B94594BD3F8E02042F004024D
:10062C00C3F8E020D3F8E02002F004020092009A14
:10063C00D3F8E02042F08002C3F8E020D3F8E020A9
:10064C0002F080020192019AD3F8E02042F00102FC
:10065C00C3F8E020D3F8E02002F001020292029AE3
:10066C00D3F8E02042F00202C3F8E020D3F8E020F7
:10067C0002F002020392039AD3F8E02042F008023F
:10068C00C3F8E020D3F8E02002F008020492049AA8
:10069C00D3F8E02042F04002C3F8E020D3F8E02089
:1006AC0002F040020592059AD3F8E02042F01002C5
:1006BC00C3F8E020D3F8E03003F010030693069B58
:1006CC002F4F224644F20101384602F08DF8DFF834
:1006DC00C48022464FF48061404602F085F8294ED2
:1006EC0022460221304602F07FF84FF40053079364
:1006FC000894099407A9244801F07EFF44F20103F1
:10070C0007930125089509940A9407A9384601F026
:10071C0073FF4FF480670797089509940A9407A90B
:10072C00404601F069FF80230793184B0893099406
:10073C0007A9174801F060FF4FF400730793089462
:10074C000994A8F5406807A9404601F055FF0797A2
:10075C000227089709940A940A230B9307A9404689
:10076C0001F04AFF0797089509940A9407A93046A7
:10077C0001F042FF0CB0BDE8F08100BF004402580C
:10078C000004025800100258000802580000111111
:10079C0000180258000C025872B6FEE710B5164845
:1007AC00164B03604268002313704268802151701D
:1007BC004268E12191704268D370426813714268BB
:1007CC005371012303720E4BC3600E4B036140F255
:1007DC00F453436102F006FB58B90B4C3422002150
:1007EC00204603F05BF9212323604FF4403363610F
:1007FC0010BDFFF7D1FF00BF200100200080024098
:10080C007000002010000020EC00002008B51548F6
:10081C00154B03604FF4E133436000238360C360E6
:10082C0003610C2242618361C36103624362836290
:10083C0002F0C9FF70B900210A4803F03CF858B91E
:10084C000021084803F05CF840B9064803F014F89E
:10085C0030B908BDFFF7A0FFFFF79EFFFFF79CFF25
:10086C00FFF79AFFA80100200048004000B59DB09A
:10087C004C22002109A803F011F92022002101A823
:10088C0003F00CF9022001F0BFFF00230093214B71
:10089C009A6922F440429A619B6903F440430093A5
:1008AC00009B1C4B9B6913F4005FFAD02123099326
:1008BC004FF4A0230A9301210F910222129213925A
:1008CC000423149340F21310159016911793189259
:1008DC00199300231A931B9309A800F093F9A8B954
:1008EC003F230193032102910023039308230493D4
:1008FC004023059306934FF480620792089301A856
:10090C0000F032FD20B91DB05DF804FBFFF744FF89
:10091C00FFF742FF0048025808B501F0C7FFFFF788
:10092C00A5FFFFF76FFEFFF739FFFFF76FFF0221FF
:10093C00034801F05FFF642001F0F8FFF7E700BF08
:10094C0000100258FEE7FEE7FEE7FEE7FEE7704701
:10095C007047704708B501F0D7FF08BD82B0074B50
:10096C00D3F8F42042F00202C3F8F420D3F8F430A8
:10097C0003F002030193019B02B07047004402583C
:10098C0070B58CB000230793089309930A930B93CB
:10099C000268434B9A4201D00CB070BD414BD3F866
:1009AC00D82042F40042C3F8D820D3F8D82002F45F
:1009BC0000420092009AD3F8D82042F48032C3F857
:1009CC00D820D3F8D82002F480320192019AD3F8BF
:1009DC00D82042F40032C3F8D820D3F8D82002F43F
:1009EC0000320292029AD3F8E02042F00402C3F8DB
:1009FC00E020D3F8E02002F004020392039AD3F82B
:100A0C00E02042F00102C3F8E020D3F8E02002F02D
:100A1C0001020492049AD3F8E02042F00202C3F8D7
:100A2C00E020D3F8E02002F002020592059AD3F8F8
:100A3C00E02042F04002C3F8E020D3F8E03003F0AD
:100A4C0040030693069B32230793022608960B2538
:100A5C000B9507A9144801F0CFFD86230793089640
:100A6C00002409940A940B9507A9104801F0C4FDC1
:100A7C004FF400530793089609940A940B9507A911
:100A8C000B4801F0B9FD4FF42053079308960994D5
:100A9C000A940B9507A9074801F0AEFD7CE700BF4F
:100AAC00008002400044025800080258000002581E
:100ABC00000402580018025810B5B4B004460021C6
:100ACC002F913091319132913391B42202A802F0DE
:100ADC00E5FF22681A4B9A4201D034B010BD0223B4
:100AEC00029302A800F0DCFE38BB164BD3F8E820CA
:100AFC0042F48022C3F8E820D3F8E82002F48022E4
:100B0C000092009AD3F8E02042F00802C3F8E020EB
:100B1C00D3F8E03003F008030193019B4FF44073CA
:100B2C002F93022330930023319332930723339373
:100B3C002FA9054801F060FDCFE7FFF72DFED4E7A4
:100B4C000048004000440258000C02580649CB688B
:100B5C0023F4E0631B041B0C000200F4E06003436D
:100B6C00024A1A43CA60704700ED00E00000FA0523
:100B7C0000B5174BDB68C3F30223C3F1070CBCF1C0
:100B8C00040F28BF4FF0040C03F1040EBEF1060F46
:100B9C0014D9033B4FF0FF3E0EFA0CFC21EA0C017A
:100BAC0099400EFA03F322EA03031943002807DBEA
:100BBC000901C9B2074B19545DF804FB0023E9E79E
:100BCC0000F00F000901C9B2034B1954F4E700BF40
:100BDC0000ED00E000E400E014ED00E00138B0F1BD
:100BEC00807F0BD24FF0E0235861054AF02182F848
:100BFC0023100020986107221A617047012070476A
:100C0C0000ED00E0002800F0958238B5044603683A
:100C1C0013F0010F25D09E4A136903F03803926A32
:100C2C00102B15D0182B0FD06368B3F5803F3DD037
:100C3C00002B51D1964B1A6822F480321A601A6834
:100C4C0022F480221A6036E002F00302022AEBD171
:100C5C008F4B1B6813F4003F03D06368002B00F02C
:100C6C007382236813F0020F70D0894A1369926A59
:100C7C0013F0380359D0182B54D0E368002B00F034
:100C8C00928083490A6822F0190213430B6001F029
:100C9C0047FE05467E4B1B6813F0040F7AD101F01A
:100CAC003FFE401B0228F5D9032054E2784A136812
:100CBC0043F48033136063682BB301F031FE0546B7
:100CCC00734B1B6813F4003FCBD101F029FE401B82
:100CDC006428F5D903203EE2B3F5A02F09D06C4B64
:100CEC001A6822F480321A601A6822F480221A6080
:100CFC00E1E7674B1A6842F480221A601A6842F4E2
:100D0C0080321A60D7E701F00BFE0546604B1B687A
:100D1C0013F4003FA5D001F003FE401B6428F5D965
:100D2C00032018E212F0030FA7D1594B1B6813F0E4
:100D3C00040F03D0E368002B00F00882544A536878
:100D4C0023F0FE43216943EA01635360236813F0E7
:100D5C00100F51D04E4A136903F03803926A082BD6
:100D6C0039D0182B33D0E369002B68D0484A13686C
:100D7C0043F08003136001F0D3FD0546444B1B6820
:100D8C0013F4807F52D101F0CBFD401B0228F5D922
:100D9C000320E0E13E4A536823F0FE43216943EA15
:100DAC0001635360D2E73A4A136823F001031360DE
:100DBC0001F0B6FD0546364B1B6813F0040FC5D089
:100DCC0001F0AEFD401B0228F5D90320C3E102F06F
:100DDC000302012AC7D12E4B1B6813F4807F03D06A
:100DEC00E369802B40F0B481294AD36823F07C530B
:100DFC00216A43EA0163D360236813F0080F49D0DA
:100E0C00636983B3224A536F43F00103536701F0C4
:100E1C0087FD05461E4B5B6F13F0020F3AD101F0B4
:100E2C007FFD401B0228F5D9032094E1184AD368B2
:100E3C0023F07C53216A43EA0163D360DCE7144A54
:100E4C00136823F08003136001F06AFD0546104B14
:100E5C001B6813F4807FCFD001F062FD401B022889
:100E6C00F5D9032077E10A4A536F23F00103536746
:100E7C0001F056FD0546064B5B6F13F0020F09D0CF
:100E8C0001F04EFD401B0228F5D9032063E100BFA1
:100E9C0000440258236813F0200F29D0A3699BB19A
:100EAC00A54A136843F48053136001F039FD0546DD
:100EBC00A14B1B6813F4005F1AD101F031FD401BEC
:100ECC000228F5D9032046E19B4A136823F480538A
:100EDC00136001F025FD0546974B1B6813F4005F6A
:100EEC0006D001F01DFD401B0228F5D9032032E18C
:100EFC00236813F0040F21D1636A002B00F02A81C0
:100F0C008D4A126902F03802182A00F0EA80022B8E
:100F1C0075D0894A136823F08073136001F000FDCB
:100F2C000446854B1B6813F0007F00F0D88001F05D
:100F3C00F7FC001B0228F4D903200CE17F4A13684C
:100F4C0043F48073136001F0EBFC05467B4B1B688C
:100F5C0013F4807F06D101F0E3FC401B6428F5D923
:100F6C000320F8E0A368012B0AD00BBB724B1A6F5D
:100F7C0022F001021A671A6F22F004021A6704E0C9
:100F8C006D4A136F43F001031367A36833B301F089
:100F9C00C7FC0546684B1B6F13F0020FACD101F078
:100FAC00BFFC401B41F288339842F3D90320D2E0B6
:100FBC00052B09D0604B1A6F22F001021A671A6FC9
:100FCC0022F004021A67E0E75B4B1A6F42F004024E
:100FDC001A671A6F42F001021A67D6E701F0A0FCFB
:100FEC000546554B1B6F13F0020F85D001F098FC92
:100FFC00401B41F288339842F3D90320ABE04E4AB0
:10100C00136823F08073136001F08AFC05464A4B89
:10101C001B6813F0007F06D001F082FC401B0228F5
:10102C00F5D9032097E0444B996A454A0A40A16AD6
:10103C00E06A41EA00110A439A62226B013AC2F358
:10104C000802616B0139490289B20A43A16B01396B
:10105C00090401F4FE010A43E16B0139090601F0B0
:10106C00FE410A431A63DA6A22F00102DA62596B12
:10107C00344A0A40A16C42EAC1025A63DA6A22F08D
:10108C000C02216C0A43DA62DA6A22F00202616C09
:10109C000A43DA62DA6A42F48032DA62DA6A42F4D9
:1010AC000032DA62DA6A42F48022DA62DA6A42F0F8
:1010BC000102DA621A6842F080721A6001F030FCA8
:1010CC0004461D4B1B6813F0007F06D101F028FC71
:1010DC00001B0228F5D903203DE000203BE0002056
:1010EC0039E015498A6A086B012B35D002F00303ED
:1010FC00A16A8B4232D1C2F30512E36A9A422FD114
:10110C00C0F30802236B013B9A422BD1C0F3462259
:10111C00636B013B9A4227D1C0F30642A36B013BA0
:10112C009A4223D1C0F30660E36B013B98421FD176
:10113C00002010E00120704700440258004802587B
:10114C000CFCFFFF0700FFFF012004E0012002E080
:10115C00012000E0002038BD0120FCE70120FAE767
:10116C000120F8E70120F6E70120F4E70120F2E77F
:10117C000120F0E7744B1B6903F03803102B00F0CF
:10118C00DE80182B10D00BB1704870476E4B1B686B
:10119C0013F0200F00F0D5806B4B1868C0F3C10022
:1011AC006B4B23FA00F0704710B4674A916A01F058
:1011BC000301946AC4F30510D36A03F0010C536B5A
:1011CC00C3F3CC030CFB03F307EE903AF8EE677A0B
:1011DC0014F47C7F00F09380012965D0022900F083
:1011EC009180E1B107EE100AF8EE476A9FED596A5B
:1011FC0086EE267A544B1B6BC3F3080306EE903A2B
:10120C00F8EE666A9FED546A67EE867A76EEA77AF8
:10121C00F7EE006A77EEA67A27EE277A60E013687D
:10122C0013F0200F23D011461268C2F3C102484BB1
:10123C00D34007EE103AF8EE476A07EE100AB8EE04
:10124C00476A86EE867A0B6BC3F3080306EE903A78
:10125C00F8EE666A9FED406A67EE867A76EEA77ABC
:10126C00F7EE006A77EEA67A27EE277A38E007EEDB
:10127C00100AF8EE476A9FED396A86EE267A324BF1
:10128C001B6BC3F3080306EE903AF8EE666A9FED0B
:10129C00326A67EE867A76EEA77AF7EE006A77EE18
:1012AC00A67A27EE277A1BE007EE100AF8EE476ABB
:1012BC009FED286A86EE267A234B1B6BC3F308033B
:1012CC0006EE903AF8EE666A9FED236A67EE867A30
:1012DC0076EEA77AF7EE006A77EEA67A27EE277AF3
:1012EC00194B1B6BC3F34623013307EE903AF8EE10
:1012FC00677AC7EE276AFCEEE67A17EE900A5DF87D
:10130C00044B704707EE100AF8EE476A9FED146A1B
:10131C0086EE267A0C4B1B6BC3F3080306EE903A51
:10132C00F8EE666A9FED0C6A67EE867A76EEA77A1F
:10133C00F7EE006A77EEA67A27EE277AD0E709480F
:10134C0070470348704700BF0044025800093D0035
:10135C000090D0030024744A000000390024744C1F
:10136C000024F44A00127A00002800F0328170B593
:10137C000D4604469B4B1B6803F00F038B420BD2AC
:10138C00984A136823F00F030B431360136803F0A0
:10139C000F038B4240F01F81236813F0040F0CD015
:1013AC002269914B9B6903F070039A4205D98E49CF
:1013BC008B6923F070031A438A61236813F0080FBA
:1013CC000CD06269884BDB6903F070039A4205D933
:1013DC008549CB6923F070031A43CA61236813F063
:1013EC00100F0CD0A269804BDB6903F4E0639A42C6
:1013FC0005D97D49CB6923F4E0631A43CA6123689C
:10140C0013F0200F0CD0E269774B1B6A03F07003CA
:10141C009A4205D974490B6A23F070031A430A6285
:10142C00236813F0020F0CD0E2686F4B9B6903F03A
:10143C000F039A4205D96C498B6923F00F031A43A9
:10144C008A61236813F0010F41D0674A936923F432
:10145C007063A1680B4393616368022B0AD0032B62
:10146C0027D0012B2CD0604A126812F0040F06D141
:10147C000120ADE0126812F4003F00F0AE805A4932
:10148C000A6922F0070213430B6101F049FA064680
:10149C00554B1B6903F038036268B3EBC20F16D0CF
:1014AC0001F03EFA801B41F288339842F0D90320B8
:1014BC008EE04D4A126812F0007FE0D1012087E0E7
:1014CC00494A126812F4807FD9D1012080E0236848
:1014DC0013F0020F0CD0E268434B9B6903F00F032F
:1014EC009A4205D240498B6923F00F031A438A6153
:1014FC003C4B1B6803F00F03AB420AD9394A136803
:10150C0023F00F032B431360136803F00F03AB425C
:10151C0065D1236813F0040F0CD02269324B9B6900
:10152C0003F070039A4205D22F498B6923F07003A4
:10153C001A438A61236813F0080F0CD062692A4B96
:10154C00DB6903F070039A4205D22749CB6923F07B
:10155C0070031A43CA61236813F0100F0CD0A269F0
:10156C00214BDB6903F4E0639A4205D21E49CB6937
:10157C0023F4E0631A43CA61236813F0200F0CD0E4
:10158C00E269194B1B6A03F070039A4205D21649A3
:10159C000B6A23F070031A430A62FFF7EBFD124942
:1015AC008B69C3F30323114AD35C03F01F03D840A8
:1015BC008B6903F00F03D35C03F01F0320FA03F3D2
:1015CC000B4A13600B4B18600B4B186801F046F973
:1015DC0070BD012070470120FAE70120F8E70120D7
:1015EC00F6E700BF0020005200440258F83A000809
:1015FC000C000020080000200400002008B5FFF7B4
:10160C00B9FD0B4A9369C3F303230A49CB5C03F07E
:10161C001F0320FA03F3926902F00F02885C00F0BA
:10162C001F0023FA00F0044A1060044A136008BD3E
:10163C0000440258F83A00080C0000200800002072
:10164C0008B5FFF7DBFF054BDB69C3F30213044A54
:10165C00D35C03F01F03D84008BD00BF0044025800
:10166C00F83A000808B5FFF7C9FF054BDB69C3F36F
:10167C000223044AD35C03F01F03D84008BD00BF0B
:10168C0000440258F83A0008404B9B6A03F00303ED
:10169C00032B79D070B505460E463C4A136823F0EF
:1016AC008063136001F03CF90446384B1B6813F05F
:1016BC00006F06D001F034F9031B022BF5D903207F
:1016CC0070BD324B9A6A22F47C32296842EA0132AC
:1016DC009A626A68013AC2F30802A96801394902A0
:1016EC0089B20A43E9680139090401F4FE010A438D
:1016FC0029690139090601F0FE410A439A63DA6A45
:10170C0022F0C00269690A43DA62DA6A22F0200226
:10171C00A9690A43DA62DA6A22F01002DA62D96B3A
:10172C001B4A0A40E96942EAC102DA63DA6A42F00A
:10173C001002DA62C6B91A46DB6A43F40023D3629C
:10174C00124A136843F08063136001F0E9F8044611
:10175C000E4B1B6813F0006F14D101F0E1F8001B65
:10176C000228F5D90320ABE7012E05D0074AD36A2E
:10177C0043F40013D362E3E7044AD36A43F48013BF
:10178C00D362DDE700209BE701207047004402583C
:10179C000700FFFF404B9B6A03F00303032B79D038
:1017AC0070B505460E463C4A136823F0805313600F
:1017BC0001F0B6F80446384B1B6813F0005F06D0F6
:1017CC0001F0AEF8031B022BF5D9032070BD324B90
:1017DC009A6A22F07C72296842EA01529A626A681B
:1017EC00013AC2F30802A9680139490289B20A43D5
:1017FC00E9680139090401F4FE010A432969013938
:10180C00090601F0FE410A431A64DA6A22F44062C6
:10181C0069690A43DA62DA6A22F40072A9690A4336
:10182C00DA62DA6A22F48072DA62596C1B4A0A4074
:10183C00E96942EAC1025A64DA6A42F48072DA62F5
:10184C00C6B91A46DB6A43F48003D362124A1368A2
:10185C0043F08053136001F063F804460E4B1B6891
:10186C0013F0005F14D101F05BF8001B0228F5D9CE
:10187C000320ABE7012E05D0074AD36A43F08073EF
:10188C00D362E3E7044AD36A43F40003D362DDE78F
:10189C0000209BE701207047004402580700FFFF1F
:1018AC00F8B50446036813F0006F30D0036EB3F53F
:1018BC00001F26D00ED8EBB1B3F5801F07D1022143
:1018CC000430FFF7E1FE054645B12E4621E0012626
:1018DC0035461EE0B3F5401F09D100259D4A136D16
:1018EC0023F44013216E0B431365002611E00126EF
:1018FC0035460EE0974AD36A43F40033D362002591
:10190C00ECE702212430FFF745FF0546DCE7002613
:10191C003546236813F4807F26D0636D042B1FD8C3
:10192C00DFE803F00311170808008A4AD36A43F46E
:10193C000033D362BDB9874A136D23F00703616D81
:10194C000B43136510E00021201DFFF79DFE05469B
:10195C00F0E7002104F12400FFF71CFF0546E9E73E
:10196C000126354600E02E46236813F4806F21D003
:10197C00D4F8A030B3F5800F3DD00CD8ABB3B3F591
:10198C00001F05D10021201DFFF77EFE054608E053
:10199C00012635460EE0B3F5000F02D0B3F5200F4B
:1019AC001DD17DBB6B4A936D23F46003D4F8A0105A
:1019BC000B439365236813F4006F38D0D4F8A4302C
:1019CC00B3F1007F59D022D8002B50D0B3F1807FD7
:1019DC001AD10021201DFFF757FE05461DE0B3F577
:1019EC00C00FDED001263546E4E75A4AD36A43F4E9
:1019FC000033D362D5E7002104F12400FFF7CAFEBF
:101A0C000546CEE72E46D5E7012635460FE0B3F165
:101A1C00806F02D0B3F1A06F23D1002D34D14D4A89
:101A2C00936D23F0E063D4F8A4100B439365236803
:101A3C0013F0007F31D0A36C202B41D029D833B1C7
:101A4C00102B23D1434AD36A43F40033D362002DC5
:101A5C003CD1404AD36C23F03003A16C0B43D364CC
:101A6C001BE0B3F1407FD8D001263546DFE7394A79
:101A7C00D36A43F40033D362CFE7002104F124008E
:101A8C00FFF788FE0546C8E72E46D0E70126354607
:101A9C0003E0302BDBD001263546236813F4805F3E
:101AAC0039D0A36DB3F5005F2DD014D82BB3B3F59B
:101ABC00805F0DD10021201DFFF7E6FD054610E0EB
:101ACC000221201DFFF7E0FD0546C0E72E46E4E7A6
:101ADC00012635461FE0B3F5405F02D0B3F5804FC9
:101AEC0008D1BDB91B4A136D23F4E043A16D0B4320
:101AFC00136510E0012635460DE0164AD36A43F40F
:101B0C000033D362EDE7002104F12400FFF742FE1D
:101B1C000546E6E72E46236813F4005F27D0E36DF5
:101B2C00B3F5003F41D017D83BB1B3F5803F0ED190
:101B3C000121201DFFF7A8FD0546002D3CD1054ACB
:101B4C00136D23F4E023E16D0B4313650FE00126C5
:101B5C0035460CE000440258B3F5802FEDD0B3F5B8
:101B6C00A02FEAD0B3F5403FE7D0012635462368D5
:101B7C0013F4804F30D0D4F8A830B3F1005F44D0C8
:101B8C001FD83BB1B3F1805F18D10121201DFFF7A5
:101B9C007BFD0546002D3FD18E4A936D23F0E0432B
:101BAC00D4F8A8100B43936516E0012104F124002E
:101BBC00FFF7F0FD0546C0E72E46D8E7012635466F
:101BCC000AE0B3F1804FE5D0B3F1A04FE2D0B3F10E
:101BDC00405FDFD001263546236813F4004F09D04F
:101BEC00A36EB3F1805F19D0B3F1005F24D0D3B1F1
:101BFC0001263546236813F0807F32D0636C032BAB
:101C0C0059D8DFE803F026215226012104F12400E3
:101C1C00FFF7C0FD0546BDE72E46DDE76D4AD36AEA
:101C2C0043F40033D3626DB96A4A136D23F0405309
:101C3C00A16E0B431365DDE70121201DFFF724FD89
:101C4C000546F0E72E46D5E7624AD36A43F40033E3
:101C5C00D3629DBB5F4AD36C23F00303616C0B43CF
:101C6C00D364236813F4800F2AD1236813F0010F77
:101C7C0000F0A180636F282B00F29B80DFE803F05B
:101C8C0089999999999999998499999999999999DD
:101C9C0092999999999999998999999999999999BF
:101CAC00899999999999999989000221201DFFF791
:101CBC00EBFC0546CDE701263546D2E72E46D0E7AC
:101CCC00454A136843F48073136000F029FE0746FD
:101CDC00414B1B6813F4807F05D100F021FEC01B23
:101CEC006428F5D90325002D4AD13A4B1B6FD4F843
:101CFC00AC20534013F4407F0CD0364B1A6F22F4B7
:101D0C004072196F41F480311967196F21F48031D9
:101D1C0019671A67D4F8AC30B3F5807F15D08DBB3A
:101D2C00D4F8AC3003F44072B2F5407F1ED0294A8F
:101D3C00136923F47C53136126490B6FD4F8AC2040
:101D4C00C2F30B0213430B678FE700F0E9FD074664
:101D5C00204B1B6F13F0020FE1D100F0E1FDC01B13
:101D6C0041F288339842F3D90325D8E71948026920
:101D7C0022F47C52194901EA131313430361DBE784
:101D8C002E4672E72E4670E70121201DFFF77CFCE2
:101D9C000546E5B90F4A536D23F03803616F0B43C9
:101DAC00536508E0012104F12400FFF7F3FC05461C
:101DBC00EFE701263546236813F0020F1DD0236F81
:101DCC00052B2ED8DFE803F0110C261111112E462D
:101DDC00F1E700BF0044025800480258CFFFFF0053
:101DEC000121201DFFF750FC0546EDB9A44A536DA7
:101DFC0023F00703216F0B435365236813F0040F83
:101E0C0022D0D4F88C30052B43D8DFE803F0140F24
:101E1C003B141414012104F12400FFF7BBFC05460C
:101E2C00E3E701263546E8E72E46E6E70121201DCB
:101E3C00FFF72AFC05467DBB914A936D23F00703FF
:101E4C00D4F88C100B439365236813F0200F33D018
:101E5C00D4F88830B3F1005F4CD022D83BB1B3F149
:101E6C00805F1BD10021201DFFF70EFC0546002DC5
:101E7C0047D1834A536D23F0E043D4F888100B43C9
:101E8C00536519E0012104F12400FFF783FC05469A
:101E9C00D1E701263546D7E72E46D5E7012635464C
:101EAC000AE0B3F1804FE2D0B3F1A04FDFD0B3F131
:101EBC00405FDCD001263546236813F0400F30D04C
:101ECC00D4F89430B3F5006F4BD01FD83BB1B3F5B9
:101EDC00806F18D10021201DFFF7D6FB0546002D81
:101EEC0046D1674A936D23F4E053D4F894100B4316
:101EFC00936516E0022104F12400FFF74BFC054624
:101F0C00B5E72E46D8E7012635460AE0B3F5805FE3
:101F1C00E5D0B3F5A05FE2D0B3F5406FDFD001267A
:101F2C003546236813F0800F32D0D4F89830B3F5CF
:101F3C00804F00F09C8020D83BB1B3F5005F19D1E5
:101F4C000021201DFFF7A0FB0546002D40F09680D8
:101F5C004B4A936D23F46043D4F898100B4393656C
:101F6C0016E0022104F12400FFF714FC0546B6E745
:101F7C002E46D6E7012635460AE0B3F5004FE4D0ED
:101F8C00B3F5204FE1D0B3F5C04FDED00126354676
:101F9C00236813F0080F0AD0E36FB3F5805F71D09C
:101FAC00374A536D23F44053E16F0B435365236859
:101FBC0013F0100F0CD0D4F89030B3F5807F6AD0AA
:101FCC002F4A936D23F44073D4F890100B43936510
:101FDC00236813F4002F0BD0D4F89C30B3F5803F5A
:101FEC0071D0B3F5003F64D0002B5DD0012635468F
:101FFC00236813F4802F0CD0D4F88030B3F5001F75
:10200C0079D0B3F5401F6CD0B3F5801F64D0012696
:10201C003546236813F4803F07D0E36C002B73D054
:10202C00B3F5803F7ED001263546236813F0005F60
:10203C0040F08080236813F4003F00F08880A36F89
:10204C00B3F5807F00F0BC807ED9B3F5007F03D060
:10205C00B3F5407F40F0B280002D40F0B780084AC5
:10206C00536D23F44073A16F0B4353656FE0022152
:10207C0004F12400FFF78EFB054666E72E4687E742
:10208C0000440258022104F12400FFF783FB0028CE
:10209C0086D0012684E7022104F12400FFF77AFBA5
:1020AC0000288DD001268BE70021201DFFF7ECFACC
:1020BC0005467DB94A4A936D23F44033D4F89C10FD
:1020CC000B43936594E7022104F12400FFF762FBB4
:1020DC000546EEE72E468BE7414AD36A43F40033BC
:1020EC00D3627DB93E4A536D23F44013D4F880106B
:1020FC000B4353658DE7012104F12400FFF74AFBE4
:10210C000546EEE72E4684E7354AD36A43F400339E
:10211C00D3626DB9324AD36C23F48033E16C0B4338
:10212C00D36482E70221201DFFF7AEFA0546F0E7E3
:10213C002E467AE7022104F12400FFF72BFB00283E
:10214C003FF478AF012675E7002B85D00126236874
:10215C0013F4801F06D0224A136D23F00043E16E66
:10216C000B431365236813F4001F06D01C4A136D30
:10217C0023F08073616E0B431365236813F0804F5B
:10218C0009D0174B1A6922F400421A611A69D4F863
:10219C00B0100A431A612368002B19DB236813F46F
:1021AC00000F07D00E4A536D23F44003D4F884106B
:1021BC000B43536506B101263046F8BD0126C6E730
:1021CC00074AD36A43F40033D36245E72E46BEE791
:1021DC00034AD36C23F04053216D0B43D364DDE7EA
:1021EC000044025808B5FFF709FA054B1B6AC3F304
:1021FC000213044AD35C03F01F03D84008BD00BF90
:10220C0000440258F83A000810B5774A916A946A6B
:10221C00C4F3053ED36AC3F3001CD36BC3F3CC03E6
:10222C000CFB03F314F47C3F00F0D88001F00301A5
:10223C0007EE903AF8EE677A012965D0022900F092
:10224C00B080E1B107EE10EAB8EE477A9FED676A0D
:10225C00C6EE076A644B9B6BC3F3080307EE103A98
:10226C00B8EE477A9FED626A67EE867A77EE277A48
:10227C00B7EE007A77EE877A66EEA76A60E01368AD
:10228C0013F0200F23D011461268C2F3C102594B30
:10229C00D34007EE103AB8EE477A06EE90EAB8EE65
:1022AC00666AC7EE066A8B6BC3F3080307EE103A37
:1022BC00B8EE477A9FED4E6A67EE867A77EE277A0C
:1022CC00B7EE007A77EE877A66EEA76A38E007EE0B
:1022DC0010EAB8EE477A9FED486AC6EE076A424BA1
:1022EC009B6BC3F3080307EE103AB8EE477A9FEDE9
:1022FC00406A67EE867A77EE277AB7EE007A77EE49
:10230C00877A66EEA76A1BE007EE10EAB8EE477A0A
:10231C009FED366AC6EE076A334B9B6BC3F308031B
:10232C0007EE103AB8EE477A9FED316A67EE867A7F
:10233C0077EE277AB7EE007A77EE877A66EEA76AA1
:10234C00294A936BC3F3462307EE103AB8EE477A4B
:10235C00B7EE006A37EE067AC6EE877AFCEEE77ABD
:10236C00C0ED007A936BC3F3064307EE103AB8EE58
:10237C00477A37EE067AC6EE877AFCEEE77AC0ED3E
:10238C00017A936BC3F3066307EE903AF8EE677A23
:10239C0077EE867A86EEA77ABCEEC77A80ED027A63
:1023AC0010BD07EE10EAB8EE477A9FED146AC6EE40
:1023BC00076A0D4B9B6BC3F3080307EE103AB8EE9C
:1023CC00477A9FED0B6A67EE867A77EE277AB7EE3F
:1023DC00007A77EE877A66EEA76AB1E7002303608E
:1023EC0043608360DCE700BF004402580024744A59
:1023FC00000000390090D0030024744C0024F44AEF
:10240C0010B5774A916A946AC4F3055ED36AC3F334
:10241C00002C536CC3F3CC030CFB03F314F07C7F44
:10242C0000F0D88001F0030107EE903AF8EE677ADD
:10243C00012965D0022900F0B080E1B107EE10EA65
:10244C00B8EE477A9FED676AC6EE076A644B1B6C61
:10245C00C3F3080307EE103AB8EE477A9FED626AB1
:10246C0067EE867A77EE277AB7EE007A77EE877A80
:10247C0066EEA76A60E0136813F0200F23D01146B4
:10248C001268C2F3C102594BD34007EE103AB8EEB2
:10249C00477A06EE90EAB8EE666AC7EE066A0B6CEF
:1024AC00C3F3080307EE103AB8EE477A9FED4E6A75
:1024BC0067EE867A77EE277AB7EE007A77EE877A30
:1024CC0066EEA76A38E007EE10EAB8EE477A9FEDA1
:1024DC00486AC6EE076A424B1B6CC3F3080307EE4F
:1024EC00103AB8EE477A9FED406A67EE867A77EE3F
:1024FC00277AB7EE007A77EE877A66EEA76A1BE04A
:10250C0007EE10EAB8EE477A9FED366AC6EE076A18
:10251C00334B1B6CC3F3080307EE103AB8EE477A43
:10252C009FED316A67EE867A77EE277AB7EE007AFE
:10253C0077EE877A66EEA76A294A136CC3F34623B3
:10254C0007EE103AB8EE477AB7EE006A37EE067A25
:10255C00C6EE877AFCEEE77AC0ED007A136CC3F313
:10256C00064307EE103AB8EE477A37EE067AC6EE17
:10257C00877AFCEEE77AC0ED017A136CC3F306633D
:10258C0007EE903AF8EE677A77EE867A86EEA77ABF
:10259C00BCEEC77A80ED027A10BD07EE10EAB8EEF9
:1025AC00477A9FED146AC6EE076A0D4B1B6CC3F39A
:1025BC00080307EE103AB8EE477A9FED0B6A67EE08
:1025CC00867A77EE277AB7EE007A77EE877A66EE20
:1025DC00A76AB1E70023036043608360DCE700BFB8
:1025EC00004402580024744A000000390090D003C3
:1025FC000024744C0024F44AF0B583B0002340E06E
:10260C00092400E00024B44044EA0C040235734E63
:10261C0046F825404FF0B044D4F88050D44325EA16
:10262C0002064F6817F4803F01D042EA05064FF0CE
:10263C00B045C5F88060D5F8845004EA05064F68AB
:10264C0017F4003F01D042EA05064FF0B045C5F83B
:10265C0084602D6804EA05064F6817F4801F01D0CA
:10266C0042EA05064FF0B0452E606D682C404E686E
:10267C0016F4001F01D042EA05044FF0B04254603A
:10268C0001330A6832FA03F400F0A5804FF0010C14
:10269C000CFA03FC1CEA0202F2D04C68651E112CE9
:1026AC0018BF012D01D9122C13D185685E000324AB
:1026BC00B44025EA0405CC68B4402C4384604468DB
:1026CC0024EA0C0C4C68C4F300149C4044EA0C043F
:1026DC004460C6684FEA430C032505FA0CF5EC433D
:1026EC0026EA050E8D6805FA0CF545EA0E05C5605F
:1026FC004D68122D18BF022D12D1DE08083650F885
:10270C00267003F007054FEA850E0F2505FA0EF526
:10271C0027EA05070D6905FA0EF53D4340F82650EA
:10272C00056825404C6804F0030404FA0CF42C43AF
:10273C0004604C6814F0805FA2D0294CD4F8F4509B
:10274C0045F00205C4F8F450D4F8F44004F0020447
:10275C000194019C9D08AE1C204C54F8267003F08B
:10276C000304A6000F24B44027EA040C1D4CA0421D
:10277C003FF448AF04F58064A0421ED004F5806499
:10278C00A0421CD004F58064A0421AD004F58064E9
:10279C00A04218D004F58064A04216D004F58064E1
:1027AC00A04214D004F58064A04212D004F5006459
:1027BC00A0423FF425AF0A2425E7012423E7022495
:1027CC0021E703241FE704241DE705241BE7062447
:1027DC0019E7072417E703B0F0BD00BF0004005849
:1027EC0000440258000002580AB181617047090484
:1027FC0081617047436901EA030221EA030141EA5E
:10280C000241816170470000134BDB6813F0040F29
:10281C0007D1114BDB6803F0070383421AD0012068
:10282C00704710B50C4AD36823F007031843D060E7
:10283C0000F076F80446084B5B6813F4005F07D190
:10284C0000F06EF8001BB0F57A7FF4D9012000E09F
:10285C00002010BD0020704700480258104B1B7818
:10286C000BB90120704710B504464FF47A70B0FBD9
:10287C00F3F30C4A1068B0FBF3F0FEF7AFF968B94C
:10288C000F2C01D901200AE0002221464FF0FF3025
:10289C00FEF76EF9044B1C60002000E0012010BD17
:1028AC0000000020080000200400002010B50320C8
:1028BC00FEF74CF9FEF75EFC0F498B69C3F303235B
:1028CC000E4AD35C03F01F03D8408B6903F00F034F
:1028DC00D35C03F01F0320FA03F3094A1360094B7E
:1028EC0018600020FFF7BAFF10B10124204610BD7C
:1028FC000446FEF733F8F9E700440258F83A0008AA
:10290C000C00002008000020034B1B78034A1168C0
:10291C000B441360704700BF0000002038020020F9
:10292C00014B1868704700BF3802002038B50446C8
:10293C00FFF7F6FF0546B4F1FF3F02D0044B1B78BE
:10294C001C44FFF7EDFF401BA042FAD338BD00BF7B
:10295C0000000020034A536823F4600303435360D0
:10296C00704700BF0004005830B48B680A681343EA
:10297C000A7943EAC2630A7B43EAC2534A7B43EABD
:10298C0082538A7B43EA4253CA7B43EA02530A7C52
:10299C00002A40F0B0804FF4002213434A7C002AF6
:1029AC0040F0AB804FF4003213438A7C43EA02437D
:1029BC004A6913438A6913430A7F43EA02334A7F05
:1029CC0043EAC2238A7F002A40F099804FF4806248
:1029DC001343CA7F43EA422391F82020002A40F097
:1029EC0090804FF4807213434A6A134391F8282065
:1029FC0043EA0213CA6A13430468226822F07F4236
:102A0C0022F47B0222F4FE4222F07C021343236068
:102A1C00CA6B91F838301B0643EA426391F83020B8
:102A2C0043EA824391F8312043EA424391F8322041
:102A3C00002A68D14FF4803213434A6B1343046865
:102A4C00626822F07C5222F4EF2222F4FF6222F020
:102A5C0007021343636091F840204B6C43EA022257
:102A6C000468E5682B4B2B401343E36091F854202A
:102A7C000B6D43EA420391F84C20002A45D1802289
:102A8C0013438A6C43EA02430468226F22F0F20279
:102A9C001204120C1343236791F8563091F8552009
:102AAC0043EA42020468D4F8903023F00303134342
:102ABC00C4F890300268D2F8003D23F072038C6D9C
:102ACC002343C2F8003DCB6D91F86020FAB9402247
:102ADC00134391F8612043EA021391F8622043EA10
:102AEC00C2030168D1F8302D22F07B021343C1F8E8
:102AFC00303D30BC704700224FE7002254E70022E3
:102B0C0066E700226FE7002296E70022B8E7002272
:102B1C00DEE700BFF0FEFFFF10B4026802F5805242
:102B2C001468244B23400C68234313600A798B6888
:102B3C0043EA02330A7B43EAC232036803F5805C42
:102B4C00DCF804401C4B23401343CCF8043091F8C0
:102B5C000DC00B6A43EA0C4C026802F58052D2F8A5
:102B6C000041164B234043EA0C03C2F800310B69B9
:102B7C000A7D43EA02134A7F43EA0232036803F5F3
:102B8C00805CDCF804410E4B23401343CCF8043139
:102B9C000A7F896941EAC271026802F58052D2F853
:102BAC000801084B03400B43C2F808315DF8044B95
:102BBC00704700BFFD87FFFFFE2FFFFF00C0FEFF29
:102BCC00EFEFC0FFFFFFC07F70B5A2B00646012536
:102BDC008DF83350002412948DF841408DF8434009
:102BEC008DF828508DF856508DF832508DF84C4099
:102BFC008DF884504FF400530F938DF85C4018946B
:102C0C008DF885408DF886404FF4C36316938DF88C
:102C1C0030400B948DF835508DF836408DF840408F
:102C2C001D941B9414948DF864408DF87A408DF8A3
:102C3C004250202320938DF844508DF855404FF08E
:102C4C00405309934FF480430E938DF83140022387
:102C5C001F938DF878408DF879408DF854408DF89D
:102C6C0034501A948DF8705009A9FFF77DFE8DF839
:102C7C000450029500948DF81C408DF80D408DF891
:102C8C000C404FF4001306938DF8144004938DF808
:102C9C001D404FF40673089369463046FFF73CFF1E
:102CAC0022B070BD10B4002210E0C46802EB4203E5
:102CBC004FEAC30C04EBC303002144F80C10596019
:102CCC009960D960911D40F821300132032AECD96A
:102CDC0000238362036803F580530322C3F82C217D
:102CEC00C268036803F58053C3F81421C2680368F3
:102CFC0003F58053C3F820215DF8044B704710B4E2
:102D0C00002114E0046901EB41034FEAC30C04EB0E
:102D1C00C303002244F80C205A609A60DA601A61EE
:102D2C005A6101F1100200EB820253600131032958
:102D3C00E8D9002343658365C3654366036603686E
:102D4C0003F580530322C3F830210269036803F5AD
:102D5C008053C3F81C21036903F14802036803F58F
:102D6C008053C3F828215DF8044B704738B50546ED
:102D7C000368D3F8004224F47064FEF73FFC114B57
:102D8C000344114A934205D244F400742B68C3F8EF
:102D9C00004238BD0D4B03440D4A934202D844F413
:102DAC004074F3E70B4B03440B4A9342EED30B4BAB
:102DBC0003440B4A934202D844F48074E6E744F48B
:102DCC008064E3E700D3CEFEC0E1E40040F1E9FD0E
:102DDC003F787D0100796CFC005A6202001F0AFAF0
:102DEC007FF0FA02002800F0908030B583B00446E2
:102DFC00C36E8BB32323E366454BD3F8F42042F028
:102E0C000202C3F8F420D3F8F43003F00203019368
:102E1C00019B237A1BBB0020FFF79CFD236803F565
:102E2C0080531A6842F001021A60FFF779FD0546DB
:102E3C00236803F580531B6813F0010F14D0FFF7C0
:102E4C006FFD401BB0F5FA7FF2D904236367E023D2
:102E5C00E366012003B030BDFDF792FDCAE74FF4E5
:102E6C000000FFF777FDD9E72046FFF77FFFFEF75D
:102E7C00C5FB284BA3FB00239B0C2268013BC2F82B
:102E8C00DC302046FFF7A0FE226802F58052D2F813
:102E9C00003123F4E01343F40023C2F800316269DB
:102EAC0012F0030F04D001206067E023E366D1E742
:102EBC00216801F58051D1F80801174B034043EA12
:102ECC004203C1F808312046FFF7ECFE2046FFF71D
:102EDC0016FF626851791379226843EA0123C2F81C
:102EEC0000336268D17893781B0443EA016351780C
:102EFC0043EA0123117822680B43C2F80433002003
:102F0C0060671023E3662367A4E70120704700BFC6
:102F1C000044025883DE1B430180FFFF70B586B06E
:102F2C000446016883680269134342691343C2690A
:102F3C0013430868904A024013430B60226853689D
:102F4C0023F44053E1680B435360A16922688B4B17
:102F5C009A4201D0236A19439068894B03400B4372
:102F6C0093602268D36A23F00F03616A0B43D36228
:102F7C002268844B9A4229D0834B9A4200F0948069
:102F8C00824B9A4200F0AA80814B9A4200F0C0809A
:102F9C00804B9A4200F0D6807F4B9A4200F0088119
:102FAC007E4B9A4200F02D817D4B9A4200F040817D
:102FBC007C4B9A4200F053817B4B9A4200F0788113
:102FCC006E4B9A4200F09D81802333E0774B5B6D12
:102FDC0003F03803282B65D8DFE813F029006400D0
:102FEC00640064006400640064006400AB0164006D
:102FFC006400640064006400640064002B006400DE
:10300C006400640064006400640064005E0064009A
:10301C006400640064006400640064006000640088
:10302C0064006400640064006400640062000123B6
:10303C0000E0082351498A4200F09481E069B0F520
:10304C00004F00F00A82202B00F26282202B00F24B
:10305C00AC82DFE813F079027F02AA02AA02820294
:10306C00AA02AA02AA028702AA02AA02AA02AA0217
:10307C00AA02AA02AA028C02AA02AA02AA02AA0202
:10308C00AA02AA02AA02AA02AA02AA02AA02AA02D4
:10309C00AA02AA02AA0298021023CBE72023C9E7AE
:1030AC004023C7E78023C5E7404B5B6D03F0070364
:1030BC00052B11D8DFE813F006003F0108000A00C9
:1030CC000C000E000023B5E70823B3E71023B1E78B
:1030DC002023AFE74023ADE78023ABE7334B5B6D99
:1030EC0003F00703052B11D8DFE813F006002701C6
:1030FC0008000A000C000E0000239BE7082399E748
:10310C00102397E7202395E7402393E7802391E74B
:10311C00264B5B6D03F00703052B11D8DFE813F08A
:10312C0006000F0108000A000C000E00002381E7C6
:10313C0008237FE710237DE720237BE7402379E7F3
:10314C00802377E7194B5B6D03F00703052B11D830
:10315C00DFE813F00600F70008000A000C000E0070
:10316C00002367E7082365E7102363E7202361E763
:10317C0040235FE780235DE7F369FFCF000C005825
:10318C00FFF4FF11001001400044004000480040D3
:10319C00004C0040005000400014014000780040FA
:1031AC00007C004000180140001C01400044025803
:1031BC00694B5B6D03F03803282B20D8DFE803F054
:1031CC00151F1F1F1F1F1F1FC31F1F1F1F1F1F1F69
:1031DC00171F1F1F1F1F1F1F191F1F1F1F1F1F1F01
:1031EC001B1F1F1F1F1F1F1F1D00012322E708236A
:1031FC0020E710231EE720231CE740231AE7802337
:10320C0018E7554B5B6D03F00703052B0ED8DFE871
:10321C0003F0039C0507090B00230BE7082309E7C0
:10322C00102307E7202305E7402303E7802301E76A
:10323C00494B5B6D03F00703052B0ED8DFE803F059
:10324C0003870507090B0023F4E60823F2E6102395
:10325C00F0E62023EEE64023ECE68023EAE63E4B44
:10326C005B6D03F03803282B20D8DFE803F0151F23
:10327C001F1F1F1F1F1F721F1F1F1F1F1F1F171F07
:10328C001F1F1F1F1F1F191F1F1F1F1F1F1F1B1F4C
:10329C001F1F1F1F1F1F1D000123CBE60823C9E69C
:1032AC001023C7E62023C5E64023C3E68023C1E6EE
:1032BC00294B5B6D03F03803282B20D8DFE803F093
:1032CC00151F1F1F1F1F1F1F4E1F1F1F1F1F1F1FDD
:1032DC00171F1F1F1F1F1F1F191F1F1F1F1F1F1F00
:1032EC001B1F1F1F1F1F1F1F1D000123A2E60823EA
:1032FC00A0E610239EE620239CE640239AE680233A
:10330C0098E603F50E339B6D03F00703052B0ED8DF
:10331C00DFE803F003260507090B02238AE60823DE
:10332C0088E6102386E6202384E6402382E6802369
:10333C0080E604237EE604237CE604237AE6042359
:10334C0078E6042376E6042374E6042372E6042369
:10335C0070E604236EE600BF00440258042369E6BD
:10336C00042367E6202B27D8022BC0F01081023BE8
:10337C001E2B00F20E81DFE813F050000C015600FA
:10338C000C010C010C015B000C010C010C010C017B
:10339C000C010C010C0160000C010C010C010C0166
:1033AC000C010C010C010C010C010C010C010C01A9
:1033BC000C010C010C016C00402B2CD14FF4004083
:1033CC00626A804B33F81220B0FBF2F3656805EBB0
:1033DC004501994200F2DF80B3EB053F00F2DD803E
:1033EC00002633463146FCF78BFF090241EA106197
:1033FC0000026B08C0182A46334641F10001FCF765
:10340C007FFFA0F54072704B9A4200F2C88023688F
:10341C00D8603046CAE00120C8E0FEF7E3FE002881
:10342C00CED10020C2E003A8FEF7EEFE0498F6E72A
:10343C006846FEF7E5FF0198F1E7644B1B6813F053
:10344C00200F08D0614B1B68C3F3C1036048D84000
:10345C00E5E76048B4E75E48B2E7202B15D8202B8F
:10346C0000F29F80DFE803F031379D9D3A9D9D9DD2
:10347C003F9D9D9D9D9D9D9D449D9D9D9D9D9D9D27
:10348C009D9D9D9D9D9D9D9D5000402B1BD1626AD5
:10349C004C4B33F81230B0FBF3F06268530803EB7B
:1034AC004000B0FBF2F080B2A0F110024FF6EF73C7
:1034BC009A4278D820F00F03C0F3420018432368D7
:1034CC00D860002072E0012070E0FEF7B9F8002807
:1034DC00DDD100206AE0FEF7C5F8F8E703A8FEF797
:1034EC0093FE0498F3E76846FEF78AFF0198EEE72F
:1034FC00364B1B6813F0200F08D0344B1B68C3F3FA
:10350C00C1033348D840E2E73248C0E73048BEE751
:10351C00402B17D14FF40040626A2A4B33F812301B
:10352C00B0FBF3F0636800EB5300B0FBF3F080B238
:10353C00A0F110024FF6EF739A4241D82368D8607D
:10354C00002033E0012031E0FEF77AF80028E3D1C7
:10355C0000202BE0FEF786F8F8E703A8FEF754FEF0
:10356C000498F3E76846FEF74BFF0198EEE7174B1C
:10357C001B6813F0200F08D0144B1B68C3F3C10356
:10358C001348D840E2E71348C6E71148C4E70120C6
:10359C000CE001200AE0012008E0012006E00120F7
:1035AC0004E0012002E0012000E001200123A4F846
:1035BC006A30A4F8683000232367636706B070BDD7
:1035CC000120F3E7D03A0008FFFC0F00004402583A
:1035DC000090D00300093D00836A13F0010F06D060
:1035EC000268536823F40033C16A0B435360836A47
:1035FC0013F0020F06D00268536823F48033016B7A
:10360C000B435360836A13F0040F06D002685368AF
:10361C0023F48023416B0B435360836A13F0080F30
:10362C0006D00268536823F40043816B0B4353604C
:10363C00836A13F0100F06D00268936823F480534A
:10364C00C16B0B439360836A13F0200F06D00268A2
:10365C00936823F40053016C0B439360836A13F05B
:10366C00400F0AD00268536823F48013416C0B435B
:10367C005360436CB3F5801F0BD0836A13F0800F3B
:10368C0006D00268536823F40023C16C0B435360CB
:10369C0070470268536823F4C003816C0B4353607A
:1036AC00EBE72DE9F84305460F4616469946DDF83B
:1036BC0020802C68E46937EA04030CBF4FF0010C3E
:1036CC004FF0000CB44541D1B8F1FF3FF1D0FFF7FA
:1036DC0027F9A0EB0900404524D8B8F1000F21D000
:1036EC002B681A6812F0040FE3D0DA6912F4006F39
:1036FC00DFD04FF400621A622A68136823F4D07387
:10370C0013602A68936823F0010393602023C5F8A3
:10371C008430C5F88830C5F88C30002385F88030AB
:10372C00032014E02A68136823F4D07313602A680A
:10373C00936823F0010393602023C5F88430C5F807
:10374C008830002385F88030032000E00020BDE89D
:10375C00F88330B583B004460023C0F88C30FFF7F3
:10376C00DFF805462268126812F0080F0FD12368A3
:10377C001B6813F0040F18D12023C4F88430C4F84C
:10378C0088300020E06684F8800003B030BD6FF014
:10379C007E430093034600224FF400112046FFF7AE
:1037AC0080FF0028E3D00320EFE76FF07E43009307
:1037BC002B4600224FF480012046FFF772FF0028B1
:1037CC00DAD00320E1E778B310B50446D0F88430A2
:1037DC000BB32423C4F884302268136823F001034C
:1037EC0013602046FFF79AFB012813D0A36ABBB9DC
:1037FC002268536823F4904353602268936823F043
:10380C002A0393602268136843F001031360204677
:10381C00FFF79FFF10BD80F88030FDF74DF9D8E71A
:10382C002046FFF7D9FEE3E701207047436E2BB922
:10383C000123A0F86A30A0F86830704730B40368F0
:10384C009A68C2F342629968490F094D6B5C1B017F
:10385C00084C615C93FBF1F3A0F86A30AB5C1B0184
:10386C00A25C93FBF2F3A0F8683030BC704700BF49
:10387C00F03A0008E83A000890F88030012B18D094
:10388C00012380F880302423C0F8843003681A6840
:10389C00196821F00101196022F0005200234366DF
:1038AC0001680A602022C0F8842080F88030184615
:1038BC0070470220704738B590F88030012B1DD02E
:1038CC000446012380F880302423C0F88430036838
:1038DC001D681A6822F001021A600268936823F0CE
:1038EC00604319439160FFF7A1FF23681D602023FB
:1038FC00C4F88430002084F8800038BD0220FCE736
:10390C0038B590F88030012B1DD00446012380F887
:10391C0080302423C0F8843003681D681A6822F0B4
:10392C0001021A600268936823F060631943916086
:10393C00FFF77CFF23681D602023C4F8843000202F
:10394C0084F8800038BD0220FCE70000244AD2F83D
:10395C00883043F47003C2F88830224B1B6803F0A4
:10396C000F03062B06D81F4A136823F00F0343F0EE
:10397C00070313601C4B1A6842F001021A60002204
:10398C001A611968194A0A401A60164B1B6813F021
:10399C00080F06D0134A136823F00F0343F00703F4
:1039AC001360114B00229A61DA611A621049996214
:1039BC001049D962104919635A639963DA6319641F
:1039CC005A64196821F4802119601A660B4B43F272
:1039DC00D2021A60024B4FF000629A60704700BF2F
:1039EC0000ED00E000200052004402587FEDF6EAA2
:1039FC00000202020000FF0180020101004000529F
:103A0C00DFF834D0FFF7A2FF0C480D490D4A002314
:103A1C0002E0D458C4500433C4188C42F9D30A4A77
:103A2C000A4C002301E013600432A242FBD300F0E5
:103A3C0011F8FCF771FF7047000002200000002015
:103A4C0010000020183B0008D00000203C02002091
:103A5C00FEE7000070B50D4D0D4C641BA410002644
:103A6C00A64209D10B4D0C4C00F020F8641BA4109D
:103A7C000026A64205D170BD55F8043B9847013687
:103A8C00EEE755F8043B98470136F2E7103B000887
:103A9C00103B0008103B0008143B0008024403468E
:103AAC00934200D1704703F8011BF9E7F8B500BF4A
:103ABC00F8BC08BC9E467047F8B500BFF8BC08BC03
:043ACC009E4670475B
:103AD000010002000400060008000A000C001000AB
:103AE00020004000800000010804020408010101D8
:103AF00001010103070100000000000001020304AE
:083B0000010203040607080995
:083B080034C8FF7F010000003A
:043B1000F1020008B6
:043B1400CD020008D6
:103B180001000000100000000090D0030090D003C6
:103B2800000000000000000000000000000000008D
:103B3800000000000000000000000000000000007D
:103B4800000000000000000000000000000000006D
:103B5800000000000000000000000000000000005D
:103B6800000000000000000000000000000000004D
:103B7800000000000000000000000000000000003D
:103B8800000000000000000000000000000000002D
:103B9800000000000000000000000000000000001D
:103BA800000000000000000000000000000000000D
:103BB80000000000000000000000000000000000FD
:103BC80000000000000000000000000000000000ED
:103BD80000000000000000000000000000000000DD
:0400000508003A0DA8
:00000001FF
